:100000000C9496080C94B3080C94B3080C94B308A1
:100010000C94B3080C94B3080C94B3080C94B30874
:100020000C94B3080C94B3080C94B3080C94B30864
:100030000C94B3080C94B3080C94B3080C94F61603
:100040000C9434090C94050D0C94B3080C94B3086B
:100050000C94B3080C94B3080C94B3080C94B30834
:100060000C94B3080C94B3080C94B3080C94B30824
:100070000C94B3080C94B3080C94B3080C94B30814
:100080000C94B3080C94B3080C94B3080C94B30804
:100090000C94B3083503250316030703F402E202A8
:1000A000D002C002B0029E028D027C026A02580297
:1000B0004602340221021002FF01EC01D901C601FF
:1000C000B3019F018E017C016A0157014601320193
:1000D00020010F01FD00EC00DA00202020536F43C7
:1000E00020446973706C617920202000205573656D
:1000F0002046616872656E68656974200020202062
:100100002042757A7A6572204F6E20202020004EA2
:1001100069676874204272696768746E65737300FA
:100120005265762E2043757272656E742044697331
:100130007000202053746174696F6E617279204D74
:100140006F6465202000456E61626C6520507265A9
:100150006368617267650020506172616C6C656CE8
:1001600020537472696E6773200020204D504F3207
:100170002046756E6374696F6E20200020204D50FC
:100180004F312046756E6374696F6E202000202009
:100190004D50492046756E6374696F6E20200020B3
:1001A000202020536C6565702044656C61792020A7
:1001B000202000416C74204368617267652043759C
:1001C0007272656E7400416C742043686172676579
:1001D00020566F6C74616765004D617820436861DB
:1001E0007267652043757272656E74004D61782088
:1001F00043686172676520566F6C746167650020A3
:1002000020424D53204D61782054656D70202000B0
:100210002020424D53204D696E2054656D70202082
:10022000002020424D5320487973746572657369CC
:10023000732020002042616C616E636520566F6CF4
:1002400074616765200020424D53204D617820562F
:100250006F6C74616765200020424D53204D696EBC
:1002600020566F6C7461676520002054656D7020A6
:10027000476175676520436F6C6420002054656D8D
:100280007020476175676520486F7420004675656A
:100290006C20476175676520456D70747900204654
:1002A00075656C2047617567652046756C6C20002C
:1002B000202020546163686F20505052202020007D
:1002C000204D696E2049736F6C6174696F6E2000F8
:1002D000204D696E2041757820566F6C746167659A
:1002E000200045564D532054656D70205761726E45
:1002F000696E670020202054726970204375727205
:10030000656E7420202000205761726E2043757244
:1003100072656E7420002046756C6C20566F6C748C
:1003200061676520002020536F43205761726E691A
:100330006E67202000205061636B20436170616311
:10034000697479200086037B0373036A0360035A90
:10035000035303537461747573004572726F7200B6
:10036000556E64657274656D70004F766572746564
:100370006D70004C6F7720536F430054656D702093
:1003800067617567650047726F756E6400B603AB91
:1003900003A003950343747220617578207377007E
:1003A00048646C6967687420696E00416C742063EE
:1003B00068617267650057616B652075700006059E
:1003C000F504E104CC04BD04AD049D0489047A0461
:1003D0006A04570446043604260415040504F3038E
:1003E000E2034E6F20636F6D6D7320746F2045566E
:1003F0004D5300424D53202D20436F6D6D7320658A
:1004000072726F7200436F6E746163746F722066F4
:1004100061756C740050726563686172676520660F
:1004200061696C6564004C6F7720313256206261DF
:1004300074746572790049736F6C6174696F6E20B2
:100440006661756C74004F7665722D74656D7065AC
:10045000726174757265004C6F77206261747465A7
:1004600072792063686172676500424D53202D20C8
:10047000556E64657274656D7000424D53202D2079
:100480004F76657274656D700043686172676520B0
:10049000656E64656420627920424D5300424D537D
:1004A000202D20486967682063656C6C005368756F
:1004B00074646F776E20627920424D5300424D5331
:1004C000202D204C6F772063656C6C004F76657231
:1004D00063757272656E742073687574646F776E7D
:1004E000004F76657263757272656E742077617203
:1004F0006E696E6700436F727275707420736574F5
:1005000074696E6773004E6F206572726F72004679
:10051000053A053205290521051B055365747570DB
:100520000053746F70706564004368617267696E30
:10053000670052756E6E696E670050726563686120
:100540007267696E670049646C6500000000000016
:10055000000000000000000000000000000000009B
:100560000000000000000000000000000000000784
:10057000000F800F800F800F800F800700070000A2
:10058000000000070007000700000000000E380E02
:10059000380E380E38063000000000000000000061
:1005A000000000000000000000000000000C300C03
:1005B000300C307FFE7FFE0C300C300C300C307F66
:1005C000FE7FFE0C300C300C3000000000024002B8
:1005D000400FF81FF81A401A401FF00FF802580297
:1005E000581FF81FF0024002400000000000000009
:1005F000000E100E300E7000E001C0038007000EE8
:10060000700C700870000000000000000000000F77
:10061000001980198019800F000F080F9819F81819
:10062000F018E019F00F980000000000000000072B
:1006300000070007000E000000000000000000009E
:1006400000000000000000000000000000000000AA
:10065000F001C0038007000E000E000E000E000720
:1006600000038001C000F000000000000000000F47
:1006700000038001C000E000700070007000700096
:10068000E001C003800F0000000000000000000136
:10069000801188099007E007E03FFC3FFC07E00776
:1006A000E0099011880180000000000000000000B7
:1006B0000000000180018001800FF00FF001800137
:1006C0008001800000000000000000000000000029
:1006D000000000000000000000000000000000001A
:1006E000000700070007000E0000000000000000E7
:1006F0000000000000000000001FF81FF8000000CC
:1007000000000000000000000000000000000000E9
:1007100000000000000000000000000000000000D9
:1007200000070007000700000000000000000000B4
:10073000020006000E001C0038007000E001C0033B
:100740008007000E001C0000000000000000000FE9
:10075000F01C381C781CF81CF81DB81DB81F381F79
:10076000381E381C380FF0000000000000000001A7
:1007700080018003801F801F80038003800380032B
:1007800080038003801FF000000000000000000FC5
:10079000E01C701C380038007000E001C0038007C6
:1007A000000E381C381FF800000000000000000F89
:1007B000E01C701C380038007003C003C0007000DB
:1007C000381C381C700FE000000000000000000022
:1007D000E001E003E006E00CE018E01FF81FF8007D
:1007E000E000E000E003F800000000000000001F4F
:1007F000F81C001C001C001C001FE01FF00078000B
:10080000381C381C700FE0000000000000000003DE
:10081000E007000E001C001C001FF01FF81C381C15
:10082000381C381C380FF000000000000000001FCA
:10083000FC1C1C1C1C1C1C001C0038007000E0016F
:10084000C003800380038000000000000000000F50
:10085000F01C381C381C381F3807E007E01CF81C57
:10086000381C381C380FF000000000000000000F9A
:10087000F01C381C381C381C381FF80FF8003800E2
:1008800038007000E007C000000000000000000019
:100890000000000380038003800000000003800349
:1008A0008003800000000000000000000000000045
:1008B0000000000380038003800000000003800329
:1008C00080038007000000000000000000007000AE
:1008D000E001C0038007000E001C001C000E000792
:1008E00000038001C000E000700000000000000074
:1008F00000000000003FFC3FFC000000003FFC3F08
:10090000FC0000000000000000000000001C000EC1
:10091000000700038001C000E00070007000E001EB
:10092000C0038007000E001C000000000003C00F81
:10093000F01E7818380038007000E001C001C000D7
:1009400000000001C001C001C0000000000FF81C41
:100950001C1C1C1C1C1C1C1CFC1CFC1CFC1CFC1C57
:10096000001C001C001FF007F8000000000000033E
:10097000C007E00E701C381C381C381C381FF81CCF
:10098000381C381C381C3800000000000000001F14
:10099000F00E380E380E380E380FF00FF00E380EFD
:1009A000380E380E381FF00000000000000000076D
:1009B000F00E381C381C001C001C001C001C001C05
:1009C000001C380E3807F000000000000000001F77
:1009D000E00E700E380E380E380E380E380E380E07
:1009E000380E380E701FE000000000000000001FED
:1009F000F80E180E080E000E300FF00FF00E300E2D
:100A0000000E080E181FF800000000000000001F74
:100A1000F80E180E080E000E300FF00FF00E300E0C
:100A2000000E000E001F0000000000000000000784
:100A3000F00E381C381C381C001C001C001CF81C54
:100A4000381C380E3807F800000000000000001CB9
:100A5000701C701C701C701C701FF01FF01C701C30
:100A6000701C701C701C700000000000000000076B
:100A7000F001C001C001C001C001C001C001C0013E
:100A8000C001C001C007F00000000000000000012C
:100A9000FC007000700070007000700070387038DA
:100AA00070387038700FE000000000000000001E79
:100AB000380E380E700EE00FC00F800F800FC00E82
:100AC000E00E700E381E3800000000000000001F0D
:100AD000000E000E000E000E000E000E000E000EA6
:100AE000080E180E381FF800000000000000001C5F
:100AF0001C1E3C1F7C1FFC1FFC1DDC1C9C1C1C1CAA
:100B00001C1C1C1C1C1C1C00000000000000001C05
:100B10001C1C1C1E1C1F1C1F9C1DDC1CFC1C7C1C8C
:100B20003C1C1C1C1C1C1C000000000000000003DE
:100B3000E007F00E381C1C1C1C1C1C1C1C1C1C1C64
:100B40001C0E3807F003E000000000000000001F4A
:100B5000F00E380E380E380E380FF00FF00E000E73
:100B6000000E000E001F0000000000000000000347
:100B7000E00F780E381C1C1C1C1C1C1C1C1C7C1C34
:100B8000FC0FF80FF8003800FC0000000000001F08
:100B9000F00E380E380E380E380FF00FF00E700EC3
:100BA000380E380E381E3800000000000000000F1C
:100BB000F01C381C381C381C000FE007F000381CF3
:100BC000381C381C380FF000000000000000001F27
:100BD000FC19CC11C401C001C001C001C001C00199
:100BE000C001C001C007F000000000000000001CB0
:100BF000701C701C701C701C701C701C701C701C95
:100C0000701C701C700FE000000000000000001C51
:100C1000701C701C701C701C701C701C701C701C74
:100C2000700EE007C0038000000000000000001C00
:100C30001C1C1C1C1C1C1C1C1C1C9C1C9C1C9C0F81
:100C4000F80FF80770077000000000000000001C9B
:100C5000701C701C700EE007C00380038007C00E7C
:100C6000E01C701C701C7000000000000000001CE4
:100C7000701C701C701C701C700EE007C003800399
:100C800080038003800FE000000000000000001FD0
:100C9000F81C381838107000E001C0038007000EFF
:100CA000081C181C381FF800000000000000000796
:100CB000F00700070007000700070007000700070C
:100CC000000700070007F00000000000000000100F
:100CD0000018001C000E000700038001C000E000A7
:100CE000700038001C000700000000000000000732
:100CF000F0007000700070007000700070007000F4
:100D0000700070007007F000000000000001800318
:100D1000C007E00E701C380000000000000000005A
:100D200000000000000000000000000000000000C3
:100D300000000000000000000000000000000000B3
:100D4000000000000000007FFF7FFF000000001C8B
:100D5000001C000700070000000000000000000069
:100D60000000000000000000000000000000000083
:100D7000000000000000000FE0007000700FF01C89
:100D8000701C701C700FD800000000000000001ED6
:100D9000000E000E000E000FF00E380E380E380E4A
:100DA000380E380E381BF000000000000000000074
:100DB000000000000000000FE01C701C701C001CF4
:100DC000001C701C700FE00000000000000000001C
:100DD000F80070007000700FF01C701C701C701C0C
:100DE000701C701C700FD800000000000000000094
:100DF000000000000000000FE01C701C701FF01CC1
:100E0000001C701C700FE0000000000000000003D8
:100E1000E007700770070007001FE01FE0070007EA
:100E200000070007001FC0000000000000000000D5
:100E3000000000000000000FD81C701C701C701C0B
:100E4000700FF007F000701C700FE0000000001E33
:100E5000000E000E000E000EF00F380F380E380E88
:100E6000380E380E381E3800000000000000000167
:100E7000C001C001C000000FC001C001C001C0011D
:100E8000C001C001C00FF800000000000000000019
:100E90007000700070000003F000700070007000BF
:100EA00070007000701C700CF007E0000000001E65
:100EB000000E000E000E000E380E700EE00FC00E79
:100EC000E00E700E381E3800000000000000000F19
:100ED000C001C001C001C001C001C001C001C0010A
:100EE000C001C001C00FF8000000000000000000B9
:100EF000000000000000001FF81C9C1C9C1C9C1C97
:100F00009C1C9C1C9C1C9C0000000000000000001D
:100F1000000000000000001FE01C701C701C701C12
:100F2000701C701C701C70000000000000000000AD
:100F3000000000000000000FE01C701C701C701C02
:100F4000701C701C700FE00000000000000000002A
:100F5000000000000000001BF00E380E380E380EA6
:100F6000380E380FF00E000E001F000000000000C9
:100F7000000000000000001FB038E038E038E03822
:100F8000E038E01FE000E000E001F00000000000B9
:100F9000000000000000001EF00FF80F380E000ED9
:100FA000000E000E001F0000000000000000000006
:100FB000000000000000000FE01C301C300F800318
:100FC000E0187018700FE000000000000000000042
:100FD000000100030007001FF007000700070007DB
:100FE000000770077003E000000000000000000030
:100FF000000000000000001C701C701C701C701CA5
:10100000701C701C700FD800000000000000000071
:10101000000000000000001C701C701C701C701C84
:10102000700EE007C0038000000000000000000018
:10103000000000000000001C1C1C1C1C1C1C9C1C34
:101040009C0FF8077007700000000000000000000F
:10105000000000000000001CE01CE00FC00780073B
:10106000800FC01CE01CE000000000000000000039
:10107000000000000000000E380E380E380E380E4A
:101080003807F003E000E001C01F8000000000000E
:10109000000000000000001FE018E011C0038007FE
:1010A000000E201C601FE000000000000000000196
:1010B000F803800380038007001C001C0007000366
:1010C000800380038001F800000000000001C001DF
:1010D000C001C001C001C001C001C001C001C00108
:1010E000C001C001C001C001C00000000000001F1D
:1010F0008001C001C001C000E00038003800E001FC
:10110000C001C001C01F80000000000000000003FB
:10111000C006600660066003C0000000000000001A
:1011200000000000000000000000000011241FBEAD
:10113000CFEFD0E1DEBFCDBF1AE0A0E0B1E0ECEA36
:10114000F0E802C005900D92A43AB107D9F72DE05E
:10115000A4EABAE001C01D92A637B207E1F70E94E7
:10116000893B0C9449400C940000FC016081718122
:10117000848195814091100D5091110D9C0197FF34
:1011800002C02F5F3F4F35952795DB01A21BB30BA4
:101190004A175B07C4F097FD019695958795860FD2
:1011A000971F841795077CF02281338140913D0D74
:1011B00050913E0D4217530734F0205E3F4F81E0BF
:1011C000241735070CF480E081700895CF93DF93E6
:1011D000D82FC92F0E94B508882321F0D093EF0A99
:1011E000C093F00ADF91CF910895209180022223CD
:1011F00029F02F9A8093D40A9093D50A089590915C
:10120000530D911104C09091D10A992339F1409165
:101210007F02449FA001112495E0949F9001959F27
:10122000300D112437FF02C02F5F3F4F35952795B2
:1012300031952195310922503F4F3093610D209314
:10124000600D882381F06091600D88E790E00E9436
:101250001F4060E090E080E00C941F401092610D10
:101260001092600DEECF08951F921FB61F921124A9
:101270008F939F9380910101909102018E3F910580
:101280000CF48F9A9F918F911F901FBE1F901895FD
:10129000CF93DF939DE0899FE0011124C15BD44F80
:1012A00098E0899FF0011124E950F54FF987E8870C
:1012B0001082118212821382148215821682178282
:1012C00081E08C8785E090E09A838983CE010E943B
:1012D0004B318111FBCFDF91CF910895CF92DF92F7
:1012E000EF92FF921F93CF93DF9300D000D000D0F6
:1012F000CDB7DEB7182F282F30E03E832D833DE099
:10130000839FF0011124E15BF44FC380D480E5801A
:10131000F680C701B6016C52714081099109698359
:101320007A838B839C836A3A71058105910508F065
:10133000DCC02AE030E040E050E00E94833DC9017B
:1013400020313105D9F07CE2C71A71E0D70AEAE012
:10135000E29FB001E39F700D1124C61AD70AA3E0E3
:10136000CA16D10409F48BC0C8F4E1E0CE16D1044A
:1013700081F1F2E0CF16D10409F456C0812F2696F0
:101380000FB6F894DEBF0FBECDBFDF91CF911F9196
:10139000FF90EF90DF90CF900C94480964E0C61660
:1013A000D10461F7220F331FF901E15EF44F2D8163
:1013B0003E8173E0220F331F7A95E1F72950354FB4
:1013C0003A832983D9018C91808311968C918183F2
:1013D000D5CF8D819E8173E0880F991F7A95E1F7B3
:1013E0008950954F9A83898388E1829FF001839F7A
:1013F000F00D1124E257F44F30E020E0A981BA81CA
:101400008C9190E0982F882711964C911197840F1A
:10141000911D819391932F5F3F4F1296BA83A983B9
:101420002430310559F7AACFED81FE8153E0EE0F4C
:10143000FF1F5A95E1F7E950F54FFA83E98388E1F8
:10144000829FF001839FF00D1124EA56F44F30E0A3
:1014500020E0A981BA818C9190E0982F882711967D
:101460004C911197840F911D819391932F5F3F4F62
:101470001296BA83A9832430310559F77FCFED81C5
:10148000FE8173E0EE0FFF1F7A95E1F7E950F54F0B
:10149000FA83E98368E1629FF001639FF00D1124F4
:1014A000E256F44F50E040E0A981BA812C9130E03F
:1014B000322F222711966C911197260F311D2193FF
:1014C00031934F5F5F4F1296BA83A9834430510521
:1014D00059F7892B09F052CF8091DA0A882309F451
:1014E0004DCF81E08093D90A49CFB4EFCB16B5EE4A
:1014F000DB06B6E0EB06B8E1FB0609F4C5C108F06F
:101500007CC0F5E3CF16D104E104F10409F404C171
:1015100008F04BC038E2C316D104E104F10409F429
:101520003FC162E3C616D104E104F10409F473C1BA
:101530007EE1C716D104E104F10409F01FCFED816B
:10154000FE8133E0EE0FFF1F3A95E1F7E950F54FCA
:10155000FA83E98390E080E0A981BA812D91BA8372
:10156000A983FC01EB57F44F208301968830910545
:1015700099F71092D70A81E08093E50A90918A0B3F
:101580009F3F41F48093DA0A83E794E090937E01D1
:1015900080937D0180918B0B881F8827881F809303
:1015A000D10A80E00E94FF08E9CE81E8C81682E0F7
:1015B000D806E104F10409F44FC191E8C91693E09B
:1015C000D906E104F10409F0D9CEED81FE8183E072
:1015D000EE0FFF1F8A95E1F7E950F54FFA83E98393
:1015E000E6E5FDE0A981BA818D91BA83A983819353
:1015F000BDE0EE35FB07B1F725C1A5EECA16A0E5A3
:10160000DA06AFEFEA06A8E1FA0609F460C1B8F518
:10161000E4EFCE16E7EEDE06E6E0EE06E8E1FE06D3
:1016200009F490C1F4EFCF16F8EEDF06F6E0EF060E
:10163000F8E1FF0609F0A2CEED81FE8143E0EE0F56
:10164000FF1F4A95E1F7E950F54F808190E0982F10
:1016500088272181820F911D9093C20A8093C10A2D
:10166000828190E0982F88272381820F911D90938B
:10167000C40A8093C30A84818093C50A7FCE27EE73
:10168000C21620E5D2062FEFE20628E1F20609F4A1
:101690007CC138EEC31630E5D3063FEFE30638E1F0
:1016A000F30609F06BCE2D813E8183E0220F331FBC
:1016B0008A95E1F72950354F3A832983D9018C91D6
:1016C00090E0982F882711962C911197820F911DE9
:1016D0009093BC0A8093BB0A12968C91129790E06B
:1016E000982F882713962C911397820F911D909312
:1016F000BE0A8093BD0A14968C9114978093BF0AFA
:1017000015968C918093C00A8CE090E09093E40A47
:101710008093E30A83E076C16D817E8143E0660FAA
:10172000771F4A95E1F76950754F7A836983DB012A
:101730008C918093330D11968C9111978093340D79
:1017400012968C9112978093350D13968C91139766
:101750008093360D14968C911497982F9F709093C8
:10176000370D282F30E054E0359527955A95E1F74D
:1017700023702093380D829586958695837080938B
:10178000390D15968C91159780933A0D16968C917C
:10179000169780933B0D17968C9180933C0DEECD60
:1017A000ED81FE8153E0EE0FFF1F5A95E1F7E950FE
:1017B000F54F808190E0B0E0A0E0DC019927882718
:1017C000418150E070E060E0762F652F542F442770
:1017D000840F951FA61FB71F2281820F911DA11D87
:1017E000B11DA058B1098093EB0A9093EC0AA09325
:1017F000ED0AB093EE0A84E090E09093EA0A8093B9
:10180000E90A8091E80A8111B9CD81E08093E80A64
:1018100080930401B3CD2D813E8143E0220F331F1D
:101820004A95E1F72950354F3A832983E7E4FBE0F5
:10183000A981BA818D91BA83A9838193BBE0EF34EA
:10184000FB07B1F784E090E09093E70A8093E60A03
:1018500081E08093060192CDED81FE8193E0EE0F51
:10186000FF1F9A95E1F7E950F54FFA83E983E7E125
:10187000FBE0A981BA818D91BA83A9838193BBE0F2
:10188000EF31FB07B1F7DECFED81FE8173E0EE0FA4
:10189000FF1F7A95E1F7E950F54F808190E0982F8E
:1018A00088272181820F911D9093AC0A8093AB0A07
:1018B000828190E0982F88272381820F911D909339
:1018C000AE0A8093AD0A84818093AF0A57CD2D81F3
:1018D0003E8143E0220F331F4A95E1F72950354FEF
:1018E0003A832983D9018C9190E0982F882711960B
:1018F0002C911197820F911D9093A60A8093A50AAF
:1019000012968C91129790E0982F882713962C911D
:101910001397820F911D9093A80A8093A70A14969B
:101920008C9114978093A90A15968C918093AA0A9A
:101930008CE090E09093E00A8093DF0A81E080934E
:10194000A40A1CCDED81FE81A3E0EE0FFF1FAA9536
:10195000E1F7E950F54F808190E0982F88272181A9
:10196000820F911D9093B70A8093B60A828190E00E
:10197000982F88272381820F911D9093B90A809315
:10198000B80A84818093BA0AF9CC2D813E8173E034
:10199000220F331F7A95E1F72950354F3A83298377
:1019A000D9018C9190E0982F882711962C9111974E
:1019B000820F911D9093B10A8093B00A12968C9178
:1019C000129790E0982F882713962C911397820FE7
:1019D000911D9093B30A8093B20A14968C91149738
:1019E0008093B40A15968C918093B50A8CE090E0B0
:1019F0009093E20A8093E10A8091000182300CF01A
:101A0000BDCC82E080930001B9CC1F920F920FB63B
:101A10000F9211240F931F932F933F934F935F9334
:101A20006F937F938F939F93AF93BF93CF93EF93D6
:101A3000FF938091DB0A9091DC0A01969093DC0A77
:101A40008093DB0A8F988091D40A9091D50A18165A
:101A50001906F4F58091320D8823A1F12F9A2E9862
:101A60001092320D8091D00A811118C08091DB0A4A
:101A70009091DC0A87709927892B81F40FE41BE091
:101A8000C0E0C8010E94AD34811126C08C2F0E9495
:101A90006E09035F1F4FCF5FC43099F7FF91EF913D
:101AA000CF91BF91AF919F918F917F916F915F91F6
:101AB0004F913F912F911F910F910F900FBE0F905B
:101AC0001F9018952F982E9A81E08093320DCACFDF
:101AD00085B18F7385B9C6CF8230D9F68C2F0E941D
:101AE0004809D7CFCF93C82F8091D80A8C1771F0AF
:101AF00081E0809304011092F60A80E00E94FF08C2
:101B000088E790E09093D30A8093D20AC093D80AD2
:101B1000CF910895E1EAF1E090E080E02191820F19
:101B2000911D21E0E13BF207C9F79093CE0A809323
:101B3000CD0A08952F923F924F925F926F927F92BB
:101B40008F929F92AF92BF92CF92DF92EF92FF92CD
:101B50000F931F93CF93DF93CDB7DEB762970FB686
:101B6000F894DEBF0FBECDBF6F837887712C612CD8
:101B70009C01990F440B550B2D873E874F87588B3F
:101B80002F81388562167306CCF062960FB6F894F2
:101B9000DEBF0FBECDBFDF91CF911F910F91FF90A0
:101BA000EF90DF90CF90BF90AF909F908F907F90FD
:101BB0006F905F904F903F902F9008952F9A2E989E
:101BC0006D857E858F8598890E949B3E4B015C01C7
:101BD0002BEA3AEA4AEA50E469839A828B83BC8210
:101BE00069817A818B819C810E94503F8B018A8B15
:101BF000998B20E030E040E850E469817A818B8164
:101C00009C810E94503F6B017C0120E030E040E865
:101C10005FE309831A838A898B8399899C8369810D
:101C20007A818B819C810E94F33D87FD41C120E038
:101C30003FEF4FE757E4C982DA82EB82FC82698189
:101C40007A818B819C810E944B3F18160CF07BC0DF
:101C500020E030E04AE754E489829A82AB82BC8279
:101C600069817A818B819C810E94F83D69877A879E
:101C70008B879C8720E030E04AE755E469837A83CC
:101C80009B859B838C858C8369817A818B819C81E8
:101C90000E94503F1B012C0120E030E040E85FE350
:101CA00069833A828B835C8269817A818B819C8192
:101CB0000E94F33D87FD44C020E03FEF4FE757E42B
:101CC00069817A818B819C810E944B3F181654F563
:101CD00020E030E040E251E4998599838A858A8347
:101CE0009B859B838C858C8369817A818B819C8188
:101CF0000E94503F69837A838B839C8369817A81B8
:101D00008B819C810E946A3ECB01009729F44E8111
:101D10004A95F1F74E833CC0E0E9F1E03197F1F7E5
:101D20000197F3CF29823A824B825C8269817A8162
:101D30008B819C810E946A3ECB010197F1F7E7CF2E
:101D400081E090E0FACF20E030E04FE753E40983F0
:101D50001A839A899B8389898C8369817A818B8193
:101D60009C810E944B3F18160CF094C0C982DA8205
:101D7000EB82FC8269817A818B819C810E946A3E20
:101D800069837A838B839C8389819A810197F1F798
:101D90002F982E9A20E030E040E85FE309831A8311
:101DA0008A898B8399899C8369817A818B819C81C3
:101DB0000E94F33D87FDCEC020E03FEF4FE757E4A0
:101DC000C982DA82EB82FC8269817A818B819C8173
:101DD0000E944B3F18160CF087C020E030E04AE725
:101DE00054E489829A82AB82BC8269817A818B8138
:101DF0009C810E94F83D6B017C0120E030E04AE7C5
:101E000055E46983DA828B83FC8269817A818B81D4
:101E10009C810E94503F8B018A87998720E030E0A7
:101E200040E85FE369831A838B839C8369817A81AD
:101E30008B819C810E94F33D87FD53C020E03FEFE2
:101E40004FE757E469817A818B819C810E944B3FE7
:101E50001816BCF520E030E040E251E4C982DA8295
:101E6000EB82FC8269817A818B819C810E94503F48
:101E700069837A838B839C8369817A818B819C813E
:101E80000E946A3ECB010097B1F45D815A95F1F74B
:101E90005D834EC009831A839A899B8329892C8389
:101EA00069817A818B819C810E946A3E6E832FCFEB
:101EB00031E03E832CCFE0E9F1E03197F1F7019773
:101EC000E2CF09831A832A852B8339853C83698174
:101ED0007A818B819C810E946A3ECB010197F1F748
:101EE000D4CF81E090E0FACF20E030E04FE753E438
:101EF00009831A838A898B8399899C8369817A8172
:101F00008B819C810E944B3F1816B4F4C982DA82FF
:101F1000EB82FC8269817A818B819C810E946A3E7E
:101F200069837A838B839C8389819A810197F1F7F6
:101F30008FEF681A780A24CE09831A832A892B83A3
:101F400039893C8369817A818B819C810E946A3EB8
:101F50006D839BCF41E04D8398CFFC01DC010D9058
:101F60000020E9F71197CD018E1B9F0B8130910561
:101F700039F412828081818380E3808382E090E063
:101F8000DF01A80FB91F2C9111962C93119701977F
:101F9000E80FF91F80818C938EE2808308950F9360
:101FA0001F93CF93DF93CDB7DEB72A970FB6F89480
:101FB000DEBF0FBECDBF8C01F80101900020E9F714
:101FC0003197E01BF10BE330F10518F1C8018E0FDA
:101FD0009F1FDC012C9111962C93DF011197AD010D
:101FE000400F511FDA012C91DC012C933297E00F46
:101FF000F11F8081DA018C938EE280832A960FB6DE
:10200000F894DEBF0FBECDBFDF91CF911F910F912E
:1020100008956DE774E0CE0101960E94CF3FB801AC
:10202000CE0101960E94C43FBE016F5F7F4FC80181
:102030000E94CF3FC1CF0F931F93CF93DF93CDB7B4
:10204000DEB72A970FB6F894DEBF0FBECDBF8C0166
:10205000F80101900020E9F73197E01BF10BE43023
:10206000F10558F1A8014E0F5F1FDA018C9111960E
:102070008C93CF010197800F911FDC012C91DA0125
:102080002C93DF011297AD01400F511FDA012C9103
:10209000DC012C933397E00FF11F8081DA018C93E0
:1020A0008EE280832A960FB6F894DEBF0FBECDBFB6
:1020B000DF91CF911F910F9108956DE774E0CE01EC
:1020C00001960E94CF3FB801CE0101960E94C43F05
:1020D000BE016F5F7F4FC8010E94CF3FB9CFCF9342
:1020E000DF93D82FC92FCB01209181022223D1F079
:1020F00049E0469F9001479F300D1124C90165E0DA
:1021000070E00E946F3DCB014AE06D2F7C2F8096DE
:102110000E94D63F6FE774E08D2F9C2FDF91CF9107
:102120000C94C43F4AE06D2F7C2F0E94D63F63E899
:1021300074E0F2CFAF92BF92CF92DF92EF92FF9214
:102140000F931F93CF93DF93CDB7DEB761970FB691
:10215000F894DEBF0FBECDBF6C837D838E839F83DB
:1021600081E08093D00A5A8749878D87288782E04B
:1021700090E09B838A83CE0101960E944B318111AE
:10218000FACFCE0101960E94AD348130D1F3002305
:1021900009F457C0802F90E0B0E0A0E08E879F87C1
:1021A000A88BB98BBC01CD010E94993E5B016C01EB
:1021B00020E030E04AE755E46E87BF86888BD98AF5
:1021C0006E857F85888999890E94503F7B018C01AB
:1021D00020E030E040E85FE36E87FF86888B198B54
:1021E0006E857F85888999890E94F33D87FD4FC060
:1021F00020E03FEF4FE757E46E857F858889998916
:102200000E944B3F1816ACF520E030E040E251E46C
:10221000AE86BF86C88AD98A6E857F858889998966
:102220000E94503F6E877F87888B998B6E857F8554
:10223000888999890E946A3ECB0120E931E00097A4
:1022400099F41092D00A61960FB6F894DEBF0FBED3
:10225000CDBFDF91CF911F910F91FF90EF90DF9055
:10226000CF90BF90AF900895F9013197F1F70197A2
:10227000E6CFEE86FF86088B198B6E857F85888971
:1022800099890E946A3ECB010197F1F7DACF81E08C
:1022900090E0FACF0F938091CC0A811123C081E0A6
:1022A00080933F0B8091CA0A9091CB0AFC01E05ABF
:1022B000FD4F20812093400B8B30910534F409971A
:1022C0003CF082E080933F0B03C00B97029760F0D5
:1022D00000E022E04FE35BE06FE170E080E090E03F
:1022E0000E949A100F91089583E0ECCFCF93DF9373
:1022F000D82F89E491E00E94B508C091CC0A8823C8
:10230000A1F1C150C093CC0AC23071F48091DA0AB5
:10231000882389F081E08093CC0A8091470B81115A
:102320000AC01092CC0A07C0C130B9F3C7FF03C07E
:1023300082E08093CC0A87E091E00E94B508882370
:1023400089F0D1110FC085E090E09093310D80931A
:10235000300D1092CF0A1092C90A1092C80A81E07B
:1023600080930401DF91CF9108958EE391E00E9464
:10237000B5088823A9F0CF5FC093CC0AC13061F4BF
:102380008091470B8111D7CF82E08093CC0A809156
:10239000DA0A8111C6CFCFCFC230C9F314F6CBCF42
:1023A000C11117C183E391E00E94B508882331F180
:1023B0008091CA0A9091CB0A01979093CB0A80939F
:1023C000CA0A2091DA0A222369F0382F292F0197AF
:1023D000FC01E950FE4F41814423B9F33093CA0A0E
:1023E0002093CB0A8091CA0A9091CB0A97FF06C02E
:1023F00082E290E09093CB0A8093CA0A88E291E04F
:102400000E94B508882319F18091CA0A9091CB0ADD
:1024100001969093CB0A8093CA0A2091DA0A22236C
:1024200061F09C010196F901E950FE4F408144237F
:10243000C1F33093CB0A2093CA0A8091CA0A9091C3
:10244000CB0A839721F41092CB0A1092CA0A8DE12D
:1024500091E00E94B50881115AC082E191E00E948A
:10246000B50821E030E0882309F465CF4091CA0A1D
:102470005091CB0A4431510509F04CC0213031054F
:1024800049F491E080E0209174022F3709F490E044
:10249000292F382FFA01E65EFD4F6081F091DA0AAC
:1024A000FF2321F0DA01A950BE4F6C9170E0FF23A9
:1024B00061F08091D90A882341F04630510529F412
:1024C00084E0809343026CE070E0DA01A35CBD4FCE
:1024D0008C9190E0DA01A05ABD4FEC912E0F311D86
:1024E000281739072CF0C901621773070CF4CB01C8
:1024F0008C93FF2309F45BC04730510509F057C0A6
:10250000843008F418CF83E08093670214CF2FEF54
:102510003FEFACCF4331510591F42130310519F52E
:10252000809173028F3F09F0B5CF8091740280686B
:10253000809374021092730230E020E0ABCF4531FB
:10254000510509F0A7CF21303105F9F480917502CA
:102550008F3F09F09FCF809176028068809376024A
:1025600010927502E9CF2F3F320731F78091730245
:10257000811190CF8091740287FF8CCF8F778093E9
:1025800074028FEF80937302D7CF2F3F3207A1F6EB
:102590008091750281117ECF8091760287FF7ACF7C
:1025A0008F77809376028FEF80937502C5CF495065
:1025B00051094430510510F40E944A118091CA0A11
:1025C0009091CB0A4F9709F0B6CE80E00E94FF08A9
:1025D000B2CEC13009F068C083E391E00E94B50833
:1025E000882359F08091C60A9091C70A019797FDF8
:1025F00050C09093C70A8093C60A88E291E00E9477
:10260000B508882371F08091C60A9091C70A9C0191
:102610002F5F3F4F099709F43FC03093C70A2093BB
:10262000C60A8DE191E00E94B50881113AC082E1AD
:1026300091E00E94B50841E050E0882309F47BCE88
:102640008091470B8F70813029F48CE38093D30203
:102650008093D4022091C60A3091C70AF901EF5243
:10266000FD4F6081F901E552FD4F808190E0F90155
:10267000ED5CF24F2081240F352F311D28173907CB
:1026800034F0862F90E0281739070CF4C9018083B5
:1026900052CE89E090E0ADCF1092C70A1092C60AE0
:1026A000C0CF4FEF5FEFCCCFC23009F044CE88E20D
:1026B00091E00E94B508882391F08091C80A90911A
:1026C000C90A01968031910514F08FE090E097FFE0
:1026D00002C090E080E09093C90A8093C80A83E327
:1026E00091E00E94B508882399F02091C80A3091A2
:1026F000C90A215031092031310514F02FE030E0B2
:1027000037FF02C030E020E03093C90A2093C80AA6
:102710008DE191E00E94B5088823A9F0E091C80AF4
:10272000F091C90AEF55FE4F2081422F4150550BC1
:10273000CA01222329F14D30510514F08CE090E0BC
:10274000843000F1808382E191E00E94B508882303
:1027500009F4F1CDE091C80AF091C90AEF55FE4F96
:10276000208130E02F5F3F4F2D30310514F02CE0F9
:1027700030E02430310514F424E030E02083DBCD58
:1027800080E0DECF1082DFCFCF930E94AA3A9093F1
:10279000110D8093100D0E94DC3A382F292F809361
:1027A0003D0D90933E0D80915E0D90915F0D8B30AD
:1027B00091058CF4FC013197EE0FFF1FDF01AE593C
:1027C000B24F4091100D5091110D4D935C93E15C0F
:1027D000F24F308321832091600D3091610D2F3FA6
:1027E000310581F44E9761F481E00E94FF0882E098
:1027F00090E00E94F5081092F60A81E080930401AF
:10280000CF9108954091CF0A41110BC08E319105AF
:1028100041F48091F60A8111F3CF81E08093F60AAA
:10282000EDCF8330910509F0ACC06091620D7091DD
:10283000630D2091640D3091650DCB01821B930BCC
:1028400097FF03C0C901861B970B0B97CCF6E0914D
:102850003F0DF091400D8091410D9091420DBF01CF
:10286000681B790B77FF03C0BC016E1B7F0B6B30BD
:10287000710534F6E091660DF091670DB9016E1B9C
:102880007F0B77FF03C0BF01621B730B6B307105B9
:102890000CF0B6CF6091430D7091440D9C01261B46
:1028A000370B37FF03C09B01281B390B2B30310539
:1028B0000CF0A6CF8091F60A882371F18BE891E0A5
:1028C0000E94E6088091830B9091840B892B21F064
:1028D0008091DA0A882341F0489B02C0659904C0C0
:1028E00086E991E00E94E60880E891E00E94E6080F
:1028F00085E791E00E94E6088AE691E00E94E608FA
:102900008091EF0A9091F00A892B09F479CF82E047
:1029100090E0CF910C94F5084423D9F089E491E03C
:102920000E94E6088EE391E00E94E60883E391E0CE
:102930000E94E60888E291E00E94E6088DE191E0BD
:102940000E94E60882E191E00E94E60887E091E0BB
:10295000D5CF8091D80A90910501943029F082E07A
:1029600090E00E94F508CCCF9091DA0A892BB9F754
:102970008FE591E00E94E60884E591E00E94E60878
:10298000EECF8630910551F581E49DE0C1E041E054
:10299000FC0122813381029660817181261B370BF5
:1029A0002530310524F42C3F3F4FB4F040E0C0E027
:1029B0002DE08934920761F7442329F081E0809368
:1029C000530D0E94FF08CC2309F41ACF1092530D27
:1029D00081E0CF910C94FF0840E0EACF8E31910561
:1029E0000CF40ECF442309F40BCF66E070E00E9494
:1029F0006F3D892B09F004CF81E0CF910C947611C3
:102A00000F931F93CF93DF938091600D9091610D91
:102A10008F3F910509F4FAC000915E0D10915F0D92
:102A2000033011050CF4F2C04091620D5091630D1A
:102A30002091640D3091650DCA01821B930B97FFA5
:102A400003C0C901841B950B0B970CF0DFC060918C
:102A50003F0D7091400D8091410D9091420DAB0161
:102A6000481B590B57FF03C0AC01461B570B4B309B
:102A700051050CF0CBC06091660D7091670DA901F6
:102A8000461B570B57FF03C0AB01421B530B4B3088
:102A900051050CF0BBC04091430D5091440D9C0179
:102AA000241B350B37FF03C09A01281B390B2B3031
:102AB00031050CF0ABC08091F60A882309F49BC065
:102AC0008BE891E00E94B508882389F08091EF0A95
:102AD0009091F00A8B58914051F481E090E09093EE
:102AE000310D8093300D1092F60A8093040180E836
:102AF00091E00E94B508882391F08091EF0A9091AF
:102B0000F00A8058914059F482E090E09093310DA2
:102B10008093300D1092F60A81E08093040186E9DB
:102B200091E00E94B508882339F18091EF0A9091D5
:102B3000F00A8659914001F58091830B9091840BA6
:102B4000892B21F08091DA0A8823B1F0489B02C0DA
:102B5000659912C083E090E09093310D8093300D21
:102B600081E08093CF0A8091DA0A81112FC0109200
:102B7000F60A81E08093040185E791E00E94B508A0
:102B8000882389F08091EF0A9091F00A855791404F
:102B900051F48091DA0A882351F187E290E0909312
:102BA000310D8093300D8AE691E00E94B5088823AC
:102BB00049F18091EF0A9091F00A8A56914011F5FF
:102BC0001092F60A81E0809304011CC0E0E6F2E076
:102BD000A7EFB1E023E832E091918D91891718F4C5
:102BE000EF01219788832E173F07B1F7C0CF81E00F
:102BF0000E94FF08D8CF8091CF0A882361F080E03F
:102C00000E9476111092F00A1092EF0ADF91CF9194
:102C10001F910F9108958091D80A8823A9F090916F
:102C20007D02992321F0982F9D7F943069F08131A6
:102C300020F080E00E94720DC5CF86E090E0909376
:102C4000310D8093300DBECFC0910501C43009F025
:102C50004CC08FE591E00E94B508882329F180914E
:102C6000DA0A811121C08091C80A9091C90A282FDF
:102C7000082E000C330B01968031910514F090E082
:102C800080E02817390729F43093C90A2093C80A2D
:102C9000B9CFFC01EF55FE4F4081442361F390937F
:102CA000C90A8093C80AAECF84E591E00E94B508B6
:102CB0008823D9F08091DA0A811117C08091C80A5F
:102CC0009091C90A282F082E000C330B019797FF0B
:102CD00002C08FE090E028173907B1F2FC01EF55F0
:102CE000FE4F4081442391F3DACF8091EF0A909117
:102CF000F00A892B09F086CF0E3111050CF082CF36
:102D00008091100D9091110D813A9105A4F181E00F
:102D10008C0F809305018230D1F48091A40A811137
:102D200009C083E0809305018091CD0A9091CE0A7D
:102D3000892BB9F080910501853099F080910501CA
:102D4000882389F080910501C8133CCF5BCF833085
:102D500059F3843079F78091CD0A9091CE0A892B6E
:102D600069F7109205018091E50A8111EBCF81E0AE
:102D700080930501E7CF8FEF8C0F809305018111C0
:102D800009C08091E50A882339F0809105018230DD
:102D9000E1F40EC087FF0FC084E0809305018091AD
:102DA000CD0A9091CE0A892B81F782E080930501AC
:102DB0008091A40ADACF843091F3833031F7809187
:102DC000CD0A9091CE0A892B81F38091DA0A88236B
:102DD00009F4B8CF809105019091E80A892B909170
:102DE0006702892B09F0AECF84E0C2CF1F920F9209
:102DF0000FB60F9211242F933F934F935F936F93CE
:102E00007F938F939F93AF93BF93EF93FF93209103
:102E1000600D3091610D4091010150910201421706
:102E2000530774F4C901841B950B8031910514F08C
:102E30008FE090E0840F951F909302018093010131
:102E40008091010190910201281739077CF4AC01AF
:102E5000421B530B9A014031510514F02FE030E032
:102E6000821B930B90930201809301018091DD0AF4
:102E70009091DE0A1816190634F08FEF90E09093C7
:102E80000201809301018091010187BD0E94A33A54
:102E9000882309F458C00E941D3B80915E0D9091DB
:102EA0005F0D019690935F0D80935E0D0E94C41399
:102EB0008091D40A9091D50A8D395FEF95072CF057
:102EC00001979093D50A8093D40A8091D40A909167
:102ED000D50A892B09F42F988091D40A9091D50AAC
:102EE000883F9F4FFCF48091D80A8823D9F09091B5
:102EF0007D02992319F08D7F8430A1F08091D20A50
:102F00009091D30A181619066CF488E090E00E949C
:102F1000F5088091D20A9091D30A01979093D30A31
:102F20008093D20AFF91EF91BF91AF919F918F91C2
:102F30007F916F915F914F913F912F910F900FBEB5
:102F40000F901F90189580915E0D90915F0D18164F
:102F5000190614F40E94001510925F0D10925E0D78
:102F60008FEF9FEF9093110D8093100D90933E0D76
:102F700080933D0D9DCF8FEF87B990EC94B981B9C7
:102F8000879A83B3836083BB8AB188698AB9589A68
:102F9000759A82E084BD93E090936E0080938100E7
:102FA00081E080936F0008958F929F92AF92BF92BD
:102FB000CF92DF92EF92FF920F931F93CF93DF9305
:102FC000CDB7DEB7E7970FB6F894DEBF0FBECDBF23
:102FD00081E390E00E9413406CAB7DAB8EAB9FAB66
:102FE0006E3E7F4F804C910509F067C0CE0101967F
:102FF0006C017C0104E010E0B12CA12CC8010E94FE
:103000000B40D7018D937D01A80EB11C0F5F1F4FA0
:103010000732110599F77E01B4E2EB0EF11C47016E
:10302000C8010E940B40982F9F70F4019083982F45
:1030300092959F709183A80EB11C0F5F1F4FF2E015
:103040008F0E911C0F32110559F78FE290E00E940C
:103050001940A816B90679F5E0E6F2E0C6018396B4
:10306000D6012D916D012193A817B907C9F7E1EA9F
:10307000F1E0C7014096D7012D917D012193A8175A
:10308000B907C9F760E090E080E00E941F4082E04D
:10309000E7960FB6F894DEBF0FBECDBFDF91CF919C
:1030A0001F910F91FF90EF90DF90CF90BF90AF9066
:1030B0009F908F90089581E0EBCF80E0E9CFCF9291
:1030C000DF92EF92FF920F931F93CF93DF93F894C9
:1030D00000E612E0C4E0D0E0F12CE12CF8016191AF
:1030E0008F01CE010E941F40F80131978081E80EC8
:1030F000F11C2196C732D10589F781EAC82E81E0FB
:10310000D82EF601808111811295107F180F612F42
:10311000CE010E941F40E10EF11CF2E0CF0ED11C47
:103120002196CF32D10569F7B7018FE290E00E9476
:1031300034404EEE5FEF60EC70E081E390E00E947F
:103140002C4060E090E080E00E941F407894DF9186
:10315000CF911F910F91FF90EF90DF90CF90089546
:10316000EF92FF920F93CF93DF93C1EAD1E08FE309
:10317000E82E8BE0F82ED701FE0181818295807FB9
:103180009081890F8D93329681E0E13BF807A9F792
:1031900004E128E04FE35BE064E270E080E090E06F
:1031A0000E949A10E0E6F2E0AFE3BBE081918D93DC
:1031B00082E0E836F807D1F704E128E04FE35BE06E
:1031C00060E270E080E090E00E949A10A8E6B2E031
:1031D000EFE3FBE08D9181938BE0E734F807D1F7C3
:1031E00004E128E04FE35BE061E270E080E090E022
:1031F0000E949A10A0E7B2E0EFE3FBE08D9181938B
:103200008BE0E734F807D1F704E128E04FE35BE017
:1032100062E270E080E090E00E949A10E8E7F2E05D
:103220008191D7018D937D01B7E4EB16BBE0FB06DE
:10323000B9F704E128E04FE35BE063E270E080E08F
:1032400090E00E949A108091330D80933F0B809103
:10325000340D8093400B8091350D8093410B80910C
:10326000360D8093420B8091380D8295807F90912E
:10327000390D9295990F990F907C890F9091370D88
:10328000890F8093430B80913A0D8093440B80917A
:103290003B0D8093450B80913C0D8093460B28E0BD
:1032A0004FE35BE064E370E080E090E00E949A10FE
:1032B0008091DA0A882369F0199281E0C13BD8072E
:1032C000D9F7809166029091D90A9923B9F0809339
:1032D000A1010E945F1810923F0B05E021E04FE32F
:1032E0005BE06FE170E080E090E00E949A10DF9177
:1032F000CF910F91FF90EF900C948A0D98E09093EE
:10330000A10188508093A201E4CFEF92FF920F9326
:103310001F93CF93DF93EC018091830B9091840BEB
:1033200001973FEEE32E3BE7F32E8530910538F40D
:10333000880F991FFC01E351FD4FE080F1808091DF
:103340007D02882399F08091D80A982F9D7F943030
:1033500069F490910501E12C28EFF22E943031F0C0
:10336000863021F1843011F4CDE9D4E090E080E0A2
:103370000E94CD38870123E130E04FE351E070E057
:1033800060E090E080E00E949D3810E000E021E0E5
:1033900042E050E060EA70E0CE010E94703ADF91B6
:1033A000CF911F910F91FF90EF900895C7E8D4E05F
:1033B000DDCFEF92FF920F931F938091040188233A
:1033C00021F090E080E00E94CD3810920401F12CB1
:1033D000E12C0FEF1FEF21E04AE550E060EA70E0DA
:1033E00086EB94E00E94703A0FE110E021E042E8A1
:1033F00050E060EA70E088EC94E00E94703A8091BE
:10340000100D9091110D853191053CF160913D0DAC
:1034100070913E0D9B012551310927313140E8F46F
:103420008C3221E09207CCF4AC014C5E5F4F0AE88D
:1034300012E59B0144970E949D3860913D0D70916B
:103440003E0D8091100D9091110D9B012C5E3F4F10
:1034500064517109AC010E949D381F910F91FF903A
:10346000EF900895AF92BF92CF92DF92EF92FF92CA
:103470000F931F93CF93DF93CDB7DEB76C970FB643
:10348000F894DEBF0FBECDBFC0908C0BD12C8091C5
:10349000880B9091890BA82EB12CBA2CAA24A90EC6
:1034A000B11C80910401882309F4AAC01092040180
:1034B000E091830BF091840BEE0FFF1FE15FFA4F59
:1034C00065917491CE0101960E94BD3F8091DA0A08
:1034D0006BED74E0811102C068EE74E082E19DE062
:1034E0000E94CF3FBE016F5F7F4F82E19DE00E944F
:1034F000C43F82E19DE00E948519F12CE12C0FE18F
:1035000010E021E04EE150E060E170E08FEE94E0E9
:103510000E940E3A21E048E550E060E170E087E863
:1035200098E00E940E3A21E042E950E060E170E04C
:1035300087EF94E00E940E3A8091DA0A882309F41A
:103540003DC121E04AEC50E060E170E08BE895E09D
:103550000E940E3AC114D10489F08091DA0A8111D7
:103560001EC0F12CE12C0FE110E021E04AEC50E00C
:1035700064E670E08BE895E00E940E3A8091DA0AEA
:1035800081110DC0F12CE12C0FE110E021E04AEC9B
:1035900050E06CEA70E083E095E00E940E3AF12C76
:1035A000E12C0FE110E021E04AEC50E064EF70E024
:1035B00085E998E00E940E3A0FEE1BE720E330E029
:1035C00047E151E064E270E083EF90E00E949D38B3
:1035D0000AE812E52EE230E045E151E066E270E0F3
:1035E00085EF90E00E949D380FEE1BE720EC30E065
:1035F0004CE251E06EE270E08EED90E00E949D386A
:103600002091EB0A3091EC0A4091ED0A5091EE0ABC
:10361000CA01B90124E630E040E050E00E94833D59
:10362000D5010E94AF3D6D8B7E8B8F8B988F97FF5E
:103630000DC0DC01CB01B095A095909581959F4F71
:10364000AF4FBF4F8D8B9E8BAF8BB88FA114B10442
:1036500009F0C0C068E075E082E19DE00E94CF3FC4
:10366000F12CE12C0FEF1FEF22E040E350E060E18E
:1036700070E082E19DE00E940E3A8091EB0A909109
:10368000EC0AA091ED0AB091EE0A9C01AD012E5C0E
:103690003F4F4F4F5F4F298F3A8F4B8F5C8FCA013F
:1036A000B90124E630E040E050E00E94833DC901CA
:1036B00060917E02662321F088279927821B930B55
:1036C0002091E90A3091EA0A232B09F0ACC020913D
:1036D000DA0A2111A8C068E075E082E19DE00E944D
:1036E000CF3FF12CE12C0FEF1FEF22E04AE650E034
:1036F00060E170E082E19DE00E940E3A8091E90A6B
:103700009091EA0A892B09F0B3C08091DA0A8111FD
:10371000AFC068E075E082E19DE00E94CF3FF12CF0
:10372000E12C0FEF1FEF22E044EA50E060E170E08F
:1037300082E19DE00E940E3A8091DA0A8111CAC1AD
:1037400080918A0B4AE062E17DE090E00E94D63FE2
:1037500082E19DE00E94AD0F6FE075E082E19DE0A7
:103760000E94C43F21E04CED50E060E170E082E156
:103770009DE00E940E3AC114D10409F4B0C0B60114
:103780006852710982E19DE00E946F106091DA0A2F
:103790003CEA6302B00111246C597F4FF12CE12CFB
:1037A0000FEF1FEF21E04CED50E082E19DE00E9421
:1037B0000E3A8091DA0A8111B0C095C0F12CE12C4B
:1037C0000FE110E021E04AEC50E060E170E08DEFA5
:1037D00094E0BECE98EEA91693E0B906C4F48091A9
:1037E000CD0A9091CE0A181619068CF44AE062E1CF
:1037F0007DE0C5010E94D63F82E19DE00E94AD0FB1
:103800006FE075E082E19DE00E94C43F29CFC501D1
:103810006AE070E00E946F3DCB014AE062E17DE02A
:103820000E94D63FEDCF9C0197FF04C0222733278B
:10383000281B390B283E334084F44AE062E17DE0E6
:103840000E94D63F82E19DE00E94AD0F63E175E0EA
:1038500082E19DE00E94C43F44CF6AE070E00E9494
:103860006F3DCB014AE062E17DE00E94D63FEECFA2
:103870008D899E89AF89B88D803826E9920728E91D
:10388000A207B105D4F4BC01CD0120E137E240E04C
:1038900050E00E94833D89014AE062E17DE0C80179
:1038A0000E94D63F82E19DE00E94AD0F67E175E086
:1038B00082E19DE00E94C43F32CF6D897E898F896D
:1038C000988D20EA36E841E050E00E94833D89016E
:1038D0004AE062E17DE0C8010E94D63FE7CF8091D7
:1038E000DA0A8111FBC04AE062E17DE084E690E003
:1038F0000E94D63F6BE175E082E19DE00E94C43FEB
:10390000F12CE12C0FEF1FEF21E04CED50E06CEAC1
:1039100070E082E19DE00E940E3A8091860BA090BB
:10392000870B90E0982F8827A80EB92EB11C29ECA0
:1039300030E0D5010E94A83D22E030E040E050E0B8
:103940000E94833D2D8B3E8B4F8B588F20916002C0
:1039500042E3249F90011124032E000C440B550BCD
:103960006D897E898F89988D0E94833D690155E616
:10397000C516D1041CF044E6C42ED12CD7FE02C0DB
:10398000D12CC12C80918202813009F09AC084E64A
:10399000A816B1040CF088C04AE062E17DE0C501E0
:1039A0000E94D63F82E19DE00E94AD0F64E275E087
:1039B00082E19DE00E94C43FF12CE12C0FEF1FEF4C
:1039C00021E04CED50E064EF70E082E19DE00E9468
:1039D0000E3A64E670E09B012C193D094FE1429FCD
:1039E000C001439F900D11240E946F3DCB01880FB1
:1039F000991F680F791F8B01159507956034710524
:103A000014F00FE110E0102F0027110F110F110F0C
:103A10002EE72C9DC0012D9D900D112464E670E0D1
:103A20000E946F3D6034710514F06FE370E085E033
:103A3000660F771F8A95E1F75801A60EB71E2EE88C
:103A40002C9DC0012D9D900D112464E670E00E9414
:103A50006F3D8EEB90E06C01C61AD70A0AE812E5BA
:103A600096014AE251E060E370E080EE90E00E944F
:103A70009D3885012EEB30E04AE251E0B60180EE40
:103A800090E00E949D386C960FB6F894DEBF0FBE92
:103A9000CDBFDF91CF911F910F91FF90EF90DF90FD
:103AA000CF90BF90AF900895C50105966AE070E091
:103AB0000E946F3DCB014AE062E17DE00E94D63F6B
:103AC00075CF4AE062E17DE0C6010E94D63F6BE11E
:103AD00075E06ECFC114D10409F051CEF12CE12C68
:103AE0000FEF1FEF21E04CED50E060E170E08FE15F
:103AF00095E05DCE2F923F924F925F926F927F92B0
:103B00008F929F92AF92BF92CF92DF92EF92FF92ED
:103B10000F931F93CF93DF93CDB7DEB769970FB69F
:103B2000F894DEBF0FBECDBF80916F022091CD0A09
:103B30003091CE0A40917D028B3FD8F46091830B87
:103B40007091840B6330710529F09091DA0A992302
:103B500009F40CC15AE0859F3001112460E3661A14
:103B600068EF760A121613060CF445C0198E188EEB
:103B700049C08B3F09F0FAC0121613060CF0FBC0C7
:103B80008091830B9091840B8330910509F4DDC003
:103B90005091DA0A5111D9C0029719F4413009F451
:103BA000D4C088E8682E83E1782E25C0D701ED9136
:103BB000FD917D01E817F9070CF4CF016E167F0621
:103BC0000CF43F01BFEFAB1ABB0AAC14BD0474F395
:103BD000685E7F4FEDE06E307E0709F0BEC0680E74
:103BE000791E77FE03C0FFEF6F1A7F0A7594679402
:103BF0005AE0650E711C80E491E0B9010E946F3DAE
:103C0000798F688F888D998D829FB001839F700D09
:103C1000929F700D112480E491E0861B970B97FD15
:103C20000196DC01B595A795BB8BAA8BB1E0BF8748
:103C3000213A31050CF01F8680916E02882E912C5E
:103C4000E8EC8E0E911C20906D02312CF6E92F0EBF
:103C5000311C442339F08091700290E0880E991E47
:103C6000281A390A9401221933093A87298741EA27
:103C700051E058874F831E821D821A821982AF81BC
:103C8000B8852D91B887AF83E88DF98D49815A8128
:103C9000E49FC001E59F900DF49F900D11244A8888
:103CA0005B88480E591EBA016F5F7F4F6E9FA0015F
:103CB0006F9F500D7E9F500D1124BA01681B790B28
:103CC0007E876D878F85681B7109798B688BA981C9
:103CD000BA81BC83AB83E22F220FFF0BFD8BEC8BF1
:103CE0008CE04D815E81849F9001859F300D112471
:103CF0003F8B2E8B8B815981851BE82FF0E06C89DF
:103D00007D89E617F7070CF440C08D819E810196EE
:103D10009E838D834097A1F569960FB6F894DEBF18
:103D20000FBECDBFDF91CF911F910F91FF90EF900C
:103D3000DF90CF90BF90AF909F908F907F906F90CB
:103D40005F904F903F902F90089501EA11E06EE848
:103D50007BE0712C612C88E893E1D801ED918D0115
:103D6000CE2ED12C7B01B12CA12C2FCFF8E86F2EB9
:103D7000F3E17F2EF7CEE8E86E2EE3E17E2EF6CE5D
:103D80006B817C817A8369837ACF6E897F89E60F24
:103D9000F71FEE0FFF1FE257F44F20813181C90159
:103DA0006AE070E00E946F3D621573057CF0861634
:103DB00097060CF45CC0A12C5CEFB52E621673065E
:103DC0004CF020EEA22E27E0B22E04C0B1014FE14C
:103DD000A42EB12C6219730928E2269FC001279FE7
:103DE000900D112469857A850E946F3DCB0105965F
:103DF0009C878B87AB81BC811196BC83AB832EEEF5
:103E000030E0281B390B10E000E0C888D988C40CCA
:103E1000D51CA60169EB70E07201BFEFEB1AFB0A3B
:103E2000C7010E949D386FEE70E0EB85FC856E1B2C
:103E30007F0B85012FEE30E0A601C7010E949D385F
:103E4000C20163E070E00E946F3D6B018D859E852D
:103E5000840D951D63E070E00E946F3D8B010C1591
:103E60001D0554F4488D598D440E551E43CFB401A1
:103E7000A12C38EFB32EAECF7601EE0CFF1CEC0C6C
:103E8000FD1CFFEFEF1AFF0A2FEF3FEF42EC50E06F
:103E9000B701C7010E94DD382FEF3FEF4AEE50E037
:103EA000B701C7010E94DD3880917D028823F1F0BF
:103EB0008091700220E5829FC001112469857A8576
:103EC0000E946F3D5B01AB014E535F4F2FEF3FEF01
:103ED000B701C7010E94DD384AEE50E04A195B097C
:103EE0002FEF3FEFB701C7010E94DD383FEFC31A44
:103EF000D30AB5CFCF92DF92EF92FF920F931F9329
:103F0000CF93DF93CDB7DEB764970FB6F894DEBFDB
:103F10000FBECDBF80910401882309F44FC01092D9
:103F20000401E091830BF091840BEE0FFF1FE15F22
:103F3000FA4F65917491CE0101960E94BD3F809128
:103F4000DA0A68E275E0811102C068EE74E082E18D
:103F50009DE00E94CF3FBE016F5F7F4F82E19DE0F9
:103F60000E94C43F82E19DE00E948519F12CE12C62
:103F70000FE110E021E048E250E060E170E08EE205
:103F800095E00E940E3A21E048E250E06AEA70E0D3
:103F90008BE395E00E940E3A21E04EE650E060E1AE
:103FA00070E087E495E00E940E3A21E04EE650E092
:103FB0006AEA70E081E595E00E940E3A8091880BF4
:103FC0009091890BC82ED12CDC2CCC24C90ED11C8D
:103FD000C114D10409F075C068E075E082E19DE08C
:103FE0000E94CF3FF12CE12C0FEF1FEF22E04CE3BA
:103FF00050E060E170E082E19DE00E940E3A809125
:104000008C0B682F70E0811185C068E075E082E15B
:104010009DE00E94CF3FF12CE12C0FEF1FEF22E03B
:104020004CE350E06AEA70E082E19DE00E940E3AC3
:10403000CD2809F076C068E075E082E19DE00E943D
:10404000CF3FF12CE12C0FEF1FEF22E042E850E0D0
:1040500060E170E082E19DE00E940E3A80918A0B5F
:104060004AE062E17DE090E00E94D63F82E19DE07F
:104070000E94AD0F6DE575E082E19DE00E94C43FB6
:1040800022E042E850E06AEA70E082E19DE00E94AE
:104090000E3A8091CD0A9091CE0A1816190614F4A2
:1040A0000E947A1D64960FB6F894DEBF0FBECDBF96
:1040B000DF91CF911F910F91FF90EF90DF90CF9004
:1040C000089588EEC81683E0D806C4F48091CD0A1E
:1040D0009091CE0A181619068CF44AE062E17DE050
:1040E000C6010E94D63F82E19DE00E94AD0F6DE5C2
:1040F00075E082E19DE00E94C43F74CFC6016AE092
:1041000070E00E946F3DCB014AE062E17DE00E94D9
:10411000D63FEDCF6852710982E19DE00E946F1099
:104120007ACF4AE062E17DE084E690E00E94D63FEB
:104130006BE175E082E19DE00E94C43F82CFEF9287
:10414000FF920F931F93CF93DF9300D000D0CDB792
:10415000DEB780910401882309F440C01092040165
:1041600080E695E00E948519F12CE12C0FE110E02A
:1041700021E04EE150E060E170E085E998E00E94C6
:104180000E3A21E04EE150E06AEA70E080E795E007
:104190000E940E3A21E048E550E060E170E08AE7D5
:1041A00095E00E940E3A21E048E550E06AEA70E0AE
:1041B00085E895E00E940E3A21E042E950E060E196
:1041C00070E080E995E00E940E3A21E042E950E07B
:1041D0006AEA70E08AE995E00E940E3A8091860BC7
:1041E0009091870BA82FB0E0BA2FAA27A90FB11D75
:1041F00029EC30E00E94A83D22E030E040E050E0B1
:104200000E94833D29833A834B835C832091600223
:1042100042E3249F90011124032E000C440B550B04
:1042200069817A818B819C810E94833DC9012536F9
:10423000310514F084E690E097FF02C090E080E042
:104240004AE062E17DE00E94D63F6BE175E082E1E9
:104250009DE00E94C43FF12CE12C0FEF1FEF22E004
:1042600040E350E060E170E082E19DE00E940E3AA0
:10427000A1EAB1E0EFE1FBE090E080E070E060E017
:104280002D912223B1F02081222341F00196422F6B
:1042900050E02617170611F00CF0BA0121812223F5
:1042A00041F00196422F50E02617170611F00CF04E
:1042B000BA0132965BE0EF33F50711F7892B09F469
:1042C000A3C06852710982E19DE00E946F10F12C39
:1042D000E12C0FEF1FEF22E040E350E06AEA70E0CC
:1042E00082E19DE00E940E3A2091880B8091890B1B
:1042F00030E0322F2227820F932F911D009709F073
:104300008FC068E075E082E19DE00E94CF3FF12C14
:10431000E12C0FEF1FEF22E04AE650E060E170E091
:1043200082E19DE00E940E3A8091E60A9091E70AB0
:10433000181619060CF09AC060911D0B70E082E10E
:104340009DE00E946F1022E04AE650E06AEA70E0C9
:1043500082E19DE00E940E3A6091580D70E082E18A
:104360009DE00E946F1022E044EA50E06AEA70E0AB
:1043700082E19DE00E940E3A8091EB0A9091EC0A56
:10438000A091ED0AB091EE0A9C01AD012E5C3F4F69
:104390004F4F5F4FCA01B90124E630E040E050E0E2
:1043A0000E94833DC90160917E02662321F0882727
:1043B0009927821B930B2091E90A3091EA0A232B5B
:1043C00009F068C02091DA0A211164C068E075E044
:1043D00082E19DE00E94CF3FF12CE12C0FEF1FEF17
:1043E00022E044EA50E060E170E082E19DE00E945A
:1043F0000E3A0F900F900F900F90DF91CF911F9179
:104400000F91FF90EF900895F12CE12C0FEF1FEF2B
:1044100022E040E350E06AEA70E085EA95E062CF8E
:10442000883E23E09207BCF42091CD0A3091CE0A59
:104430001216130684F44AE062E17DE00E94D63F42
:1044400082E19DE00E94AD0F6DE575E082E19DE0A7
:104450000E94C43F5CCF6AE070E00E946F3DCB01D8
:104460004AE062E17DE00E94D63FEECF65EA75E06A
:1044700082E19DE00E94CF3FF12CE12C0FEF1FEF76
:1044800022E04AE650E06AEA70E082E19DE00E94A4
:104490000E3A69CF9C0197FF04C022273327281BBF
:1044A000390B283E334084F44AE062E17DE00E940B
:1044B000D63F82E19DE00E94AD0F63E175E082E1AD
:1044C0009DE00E94C43F88CF6AE070E00E946F3D8B
:1044D000CB014AE062E17DE00E94D63FEECF4F92F1
:1044E0005F926F927F928F929F92AF92BF92CF9284
:1044F000DF92EF92FF920F931F93CF93DF93409140
:1045000000012091AD0A3091AE0A4203C001439FE1
:10451000900D11244AE0C42ED12C893E93401CF406
:10452000CC24C394D12C80910401882309F452C077
:104530001092040183E296E00E948519F12CE12C8F
:104540000FE110E021E04EE150E060E170E08BEA25
:1045500095E00E940E3A21E04EE150E06AEA70E0F8
:1045600088EB95E00E940E3A21E04AE550E060E1D8
:1045700070E083EC95E00E940E3A21E04AE550E0BD
:104580006AEA70E080ED95E00E940E3A21E046E98B
:1045900050E060E170E08CED95E00E940E3A21E081
:1045A00046E950E06CE370E08FE795E00E940E3A38
:1045B00021E046E950E064E870E085E995E00E947A
:1045C0000E3A21E046E950E06CEC70E089E695E0B7
:1045D0000E940E3A40910001042E000C550B25EA72
:1045E000A22E2AE0B22EF50130E020E090E080E03B
:1045F000241735070CF410C16AE070E00E946F3D8B
:10460000CB014AE062E17DE00E94D63F6FE075E0B9
:1046100082E19DE00E94C43FF12CE12C0FEF1FEFDF
:1046200022E042E350E060E170E082E19DE00E9420
:104630000E3A8091A70A9091A80A2091B20A30916F
:10464000B30A820F931F2091BD0A3091BE0A820FD8
:10465000931FB6010E946F3DCB014AE062E17DE00D
:104660000E94D63F31E0C316D10421F482E19DE0DF
:104670000E94AD0F63E175E082E19DE00E94C43FBE
:10468000F12CE12C0FEF1FEF22E042E350E06AEA49
:1046900070E082E19DE00E940E3A8091730290E00A
:1046A000C0917402C7FD9395CF77209100013C2FF4
:1046B0002303E00111244AE062E17DE00E94D63F3D
:1046C0006FE075E082E19DE00E94C43FF12CE12C97
:1046D0000FEF1FEF22E04EE650E060E170E082E174
:1046E0009DE00E940E3A2AE02C9FC0012D9F900D64
:1046F0001124B6010E946F3DCB014AE062E17DE0EA
:104700000E94D63F81E0C816D10421F482E19DE0E9
:104710000E94AD0F63E175E082E19DE00E94C43F1D
:10472000F12CE12C0FEF1FEF22E04EE650E06AEA99
:1047300070E082E19DE00E940E3A8FED682E8AE0E3
:10474000782ECAEAD0E0912C812C9AE0492E512C87
:10475000EFEF8E1A9E0A4AE062E17DE0C4010E94FA
:10476000D63FF12CE12C0FEF1FEF21E0AE0160E10D
:1047700070E082E19DE00E940E3AF5018081918116
:10478000B2010E946F3DCB014AE062E17DE00E94F0
:10479000D63F6DE575E082E19DE00E94C43F21E0D7
:1047A000AE016CE370E082E19DE00E940E3AF501FB
:1047B00082819381B6010E946F3DCB014AE062E1A4
:1047C0007DE00E94D63FF1E0CF16D10421F482E1D2
:1047D0009DE00E94AD0F6EED75E082E19DE00E94CC
:1047E000C43FF12CE12C0FEF1FEF21E0AE0164E894
:1047F00070E082E19DE00E940E3AF3018191919177
:104800003F01892B99F400E018EF21E0AE016CEC38
:1048100070E081EE95E018C060817181861797077E
:104820000CF4CB012F5F3F4F3B96E2CEF501828522
:10483000882331F1F12CE12C00E018EF21E0AE01EA
:104840006CEC70E08AEE95E00E940E3A6496FBE014
:10485000AF0EB11C23E08216910409F079CFDF91ED
:10486000CF911F910F91FF90EF90DF90CF90BF906D
:10487000AF909F908F907F906F905F904F90089532
:104880008481F12CE12C80FF09C000E018EF21E0C9
:10489000AE016CEC70E083EF95E0D6CF81FF09C0EC
:1048A00000E018EF21E0AE016CEC70E08CEF95E0D9
:1048B000CBCF82FF09C000E018EF21E0AE016CEC25
:1048C00070E085E096E0C0CF83FF09C000E018EFFC
:1048D00021E0AE016CEC70E08EE096E0B5CF84FD97
:1048E00092CF00EE17E021E0AE016CEC70E087E1C2
:1048F00096E0AACFEF92FF920F931F938091000151
:10490000833031F41F910F91FF90EF900C946F2240
:1049100080910401882371F11092040180E296E0F5
:104920000E948519F12CE12C0FE110E021E048E212
:1049300050E060E170E082E396E00E940E3A21E0F0
:1049400048E250E06AEA70E08EE396E00E940E3A98
:1049500021E04EE650E060E170E08AE496E00E94DB
:104960000E3A21E04EE650E06AEA70E080ED95E014
:104970000E940E3A8091A50A9091A60A181619066F
:104980000CF090C06AE070E00E946F3DCB014AE0FD
:1049900062E17DE00E94D63F6FE075E082E19DE03C
:1049A0000E94C43FF12CE12C0FEF1FEF22E04CE3FB
:1049B00050E060E170E082E19DE00E940E3A80915B
:1049C000A70A9091A80A181619060CF072C04AE0BE
:1049D00062E17DE00E94D63F82E19DE00E94AD0F42
:1049E00063E175E082E19DE00E94C43FF12CE12C7F
:1049F0000FEF1FEF22E04CE350E06AEA70E082E143
:104A00009DE00E940E3A8091AB0A9091AC0A6AE058
:104A100070E00E946F3DCB014AE062E17DE00E94C0
:104A2000D63F6FE075E082E19DE00E94C43F22E046
:104A300042E850E060E170E082E19DE00E940E3AC1
:104A40004AE062E17DE08091AD0A9091AE0A0E9459
:104A5000D63F82E19DE00E94AD0F63E175E082E107
:104A60009DE00E94C43F22E042E850E06AEA70E024
:104A700082E19DE00E940E3A8091DF0A9091E00A67
:104A8000892BF1F400E018EF21E048EC50E060EAF7
:104A900070E086E596E00E94703A1F910F91FF90BA
:104AA000EF90089565EA75E082E19DE00E94CF3FB6
:104AB00079CF68E075E082E19DE00E94CF3F96CF1C
:104AC0008091AF0A882361F0F12CE12C00E018EF0F
:104AD00021E048EC50E060EA70E08AE696E0DBCF47
:104AE0008091A90AF12CE12C80FF0AC000E018EFA8
:104AF00021E048EC50E060EA70E08EE796E0CBCF32
:104B000081FF0AC000E018EF21E048EC50E060EAC5
:104B100070E082E996E0BFCF82FF0AC000E018EFA4
:104B200021E048EC50E060EA70E086EA96E0B3CF1E
:104B300083FF0AC000E018EF21E048EC50E060EA93
:104B400070E08AEB96E0A7CF84FF0AC000E018EF80
:104B500021E048EC50E060EA70E08EEC96E09BCFFC
:104B600000EE17E021E048EC50E060EA70E082EEF1
:104B700096E091CF2F923F924F925F926F927F92E9
:104B80008F929F92AF92BF92CF92DF92EF92FF925D
:104B90000F931F93CF93DF93CDB7DEB764970FB614
:104BA000F894DEBF0FBECDBF31EAE32E31E0F32E25
:104BB000D70190E080E01D861E861F86188A1C8A19
:104BC0001B8A1A8A198A912C812C48E8642E43E1A9
:104BD000742E08E13D91332359F1089FF001099F9C
:104BE000F00D1124E257F44F21E0182F419151911B
:104BF0004615570518F4198B2A8B3A018416950629
:104C000018F41B8B2C8B4A01052E000C660B770BBE
:104C1000AD84BE84CF84D888A40EB51EC61ED71E10
:104C2000AD86BE86CF86D88A41E0420F3213CCC112
:104C300001968031910571F60091CD0A1091CE0A4E
:104C4000212C312C2101101611066CF46D857E8506
:104C50008F8598899801012E000C440B550B0E94FA
:104C6000833D19012A01EFE1FBE02FE33BE0B12C8A
:104C7000A12CD12CC12CD7018D917D01882381F0ED
:104C80008081882329F0C80ED11CBFEFAB1ABB0A64
:104C90008181882329F0C80ED11C8FEFA81AB80A89
:104CA00032962E173F0739F792E0A916B1042CF07F
:104CB000C601B5010E946F3D6B01809104018823FC
:104CC00009F461C0109204014AE0BE016F5F7F4F9A
:104CD000C8010E94D63F66EF76E082E19DE00E9427
:104CE000CF3FBE016F5F7F4F82E19DE00E94C43FD6
:104CF00064E077E082E19DE00E94C43F82E19DE0B4
:104D00000E9485198091DA0AF12CE12C0FE110E064
:104D100021E048E250E060E170E0882309F456C1E8
:104D2000809167029091E80A892B09F04FC18EE2C9
:104D300095E00E940E3A8091DA0AF12CE12C0FE105
:104D400010E021E048E250E06AEA70E0882309F4CC
:104D500040C18BE395E00E940E3AF12CE12C0FE16B
:104D600010E021E04EE650E060E170E080E297E084
:104D70000E940E3A21E04EE650E06AEA70E08CE2D2
:104D800097E00E940E3A8091DA0A882309F424C140
:104D90008091E80A90916702892B09F01DC16D8509
:104DA0007E858F85988924E630E040E050E00E94BF
:104DB000833D89014AE062E17DE0C8010E94D63F5F
:104DC00082E19DE00E94AD0F6DE575E082E19DE01E
:104DD0000E94C43FF12CE12C0FEF1FEF22E04CE3C7
:104DE00050E060E170E082E19DE00E940E3A809127
:104DF000DA0A882309F40DC180918C0B882309F409
:104E000008C160918C0B6852770B82E19DE00E9493
:104E10006F1022E04CE350E06AEA70E082E19DE02E
:104E20000E940E3AC30105962AE0C22ED12CB6018B
:104E30000E945B3DCB014AE062E17DE00E94D63FEB
:104E400082E19DE00E94CF0F61E075E082E19DE08C
:104E50000E94C43FF12CE12C0FEF1FEF22E042E84B
:104E600050E060E170E082E19DE00E940E3A68E36C
:104E700077E0CE0101960E94CF3F4AE062E17DE0FB
:104E8000A9888A2D90E00E94D63F62E17DE0CE01A4
:104E900001960E94C43F6AE377E0CE0101960E942A
:104EA000C43F4AE062E17DE0BA888B2D90E00E9429
:104EB000D63F62E17DE0CE0101960E94C43F62EDE3
:104EC00077E0CE0101960E94C43F0FEE1BE721E080
:104ED00045EA50E060E170E0CE0101960E940E3A92
:104EE000C4010596B6010E945B3DCB014AE062E138
:104EF0007DE00E94D63F82E19DE00E94CF0F61E0FD
:104F000075E082E19DE00E94C43F0FEF1FEF22E0B9
:104F100042E850E06AEA70E082E19DE00E940E3AC9
:104F200068E377E0CE0101960E94CF3F4AE062E15C
:104F30007DE0CB888C2D90E00E94D63F62E17DE041
:104F4000CE0101960E94C43F6AE377E0CE0101964C
:104F50000E94C43F4AE062E17DE0DC888D2D90E054
:104F60000E94D63F62E17DE0CE0101960E94C43FDF
:104F700062ED77E0CE0101960E94C43F0FEE1BE781
:104F800021E045EA50E06AEA70E0CE0101960E9415
:104F90000E3A0E947A1D64960FB6F894DEBF0FBEDB
:104FA000CDBFDF91CF911F910F91FF90EF90DF90D8
:104FB000CF90BF90AF909F908F907F906F905F90B9
:104FC0004F903F902F900895242F10CE8BE097E0C4
:104FD000B0CE87E197E0BFCED201C1010596A11DF9
:104FE000B11D8D879E87AF87B88BBC01CD012AE0AC
:104FF00030E040E050E00E94833D89014AE062E1F8
:105000007DE0C8010E94D63F82E19DE00E94CF0F63
:10501000DBCEAB2861F0B6016852710982E19DE0F8
:105020000E946F10F12CE12C0FEF1FEFF2CEF12C4C
:10503000E12C0FEF1FEF22E04CE350E06AEA70E052
:1050400085EA95E0EDCEEF92FF920F931F93CF93F9
:10505000DF9380910401882309F450C01092040169
:10506000D0E0C0E00AE812E52FEE30E0AE0170E0DB
:1050700060E0CE010E949D382296C03481E0D807BE
:1050800089F700E018EF29EA30E04BE251E066E4EE
:1050900070E084E190E00E949D3810E000E025EA95
:1050A00030E047E251E06AE470E088E190E00E947D
:1050B0009D38E091D80AF0E0EE0FFF1FE254FC4F5C
:1050C0006591749182E19DE00E94BD3FF12CE12C3D
:1050D00000E018EF21E04AE550E060EA70E08DE37F
:1050E00097E00E94703A0FEF1FEF21E042E850E096
:1050F00060EA70E082E19DE00E94703ADF91CF911A
:105100001F910F91FF90EF9008956F927F928F9271
:105110009F92AF92BF92DF92EF92FF920F931F93F5
:10512000CF93DF93EC01F62E0E94B508882349F057
:10513000DD24D3948091EF0A9091F00A8C179D079B
:1051400009F0D12C8D2D8170D82E8A85882309F401
:1051500054C0D11054C00E811F818091100D9091C8
:10516000110D1816190654F480913D0D90913E0DC5
:10517000181619061CF47801D11002C0E12CF12C8C
:105180008A809B80688079802C813D81590137FF1E
:1051900003C08FEFA81AB80AB594A794A60CB71C41
:1051A00037FF02C02F5F3F4F35952795621A730A6C
:1051B0009401205E3F4FA501B401C3010E949D38B8
:1051C0009401225E3F4FA50142505109B4016E5F28
:1051D0007F4F8701C30102960E949D384A815B81FF
:1051E000485F5F4F688179810FEF1FEF21E088856D
:1051F00099850E94703ADA8604C0D110ACCFF110C4
:10520000AACFDF91CF911F910F91FF90EF90DF9088
:10521000BF90AF909F908F907F906F9008954F9226
:105220005F926F927F928F929F92AF92BF92CF9236
:10523000DF92EF92FF920F931F93CF93DF9300D0F3
:1052400000D0CDB7DEB780916F026091DA0A8B3F54
:1052500008F0CBC02091830B3091840B23303105B3
:1052600019F0662309F4D2C09AE0899F60011124E5
:10527000A0E3CA1AA8EFDA0AB0900401BB2099F1A2
:1052800010920401662309F4FDC04AE0BE016F5F7D
:105290007F4F8091CD0A9091CE0A0E94D63F66E45E
:1052A00077E082E19DE00E94CF3FBE016F5F7F4FBC
:1052B00082E19DE00E94C43F64E077E082E19DE0EE
:1052C0000E94C43F82E19DE00E948519F12CE12CEF
:1052D0000FE110E021E048E250E06CE070E088E788
:1052E00097E00E940E3A8091DA0A882309F4E5C01B
:1052F0001092C90A1092C80A8091D90A78E0672EE4
:10530000712C811111C1912C812C4CE0442E5EE155
:10531000552E6BE4A62E8091C80A9091C90AFC0113
:10532000EF55FE4F20812815190409F00CF409C12E
:10533000489EF001499EF00D1124E80DF91DEE0F75
:10534000FF1FE257F44F4AE062E17DE080819181E6
:105350000E94D63F82E19DE00E941B10C4019595FA
:10536000879595958795589EA001599E500D1124BB
:105370004A5B5F4FC40183709927A89EB001A99E24
:10538000700D1124645F7F4FF12CE12C0FEF1FEFA4
:1053900021E082E19DE00E940E3A9FEF891A990A6E
:1053A0006814790409F0B7CF8091DA0A882309F4E8
:1053B0001DC18091D90A882309F4CAC00E947A1DB0
:1053C0000F900F900F900F90DF91CF911F910F9141
:1053D000FF90EF90DF90CF90BF90AF909F908F9015
:1053E0007F906F905F904F9008958B3F79F48091FC
:1053F000CD0A9091CE0A1816190644F48091830BB9
:105400009091840B039749F1611127C0F8E8CF2EE2
:10541000F3E1DF2E31CFD5014D915D915D0148174C
:1054200059070CF4CA01C416D5060CF46A0131966A
:10543000E815F90584F3285E3F4FE216F306C9F438
:10544000C80ED91ED7FE03C0FFEFCF1ADF0AD594CE
:10545000C7948AE0C80ED11C0FCF01EA11E02EE8F4
:105460003BE0BEE0EB2EBDE0FB2ED12CC12C88E84A
:1054700093E1F801A1918F018A2E912C5901F0E05E
:10548000E0E0D6CF84E597E00E948519F12CE12C6D
:105490000FE110E021E045EA50E06CE070E08AE6C0
:1054A00097E00E940E3A21E045EA50E062EA70E09F
:1054B00081E797E00E940E3A09CF4AE062E17DE081
:1054C0008091C80A9091C90A0E94D63F62ED77E0A8
:1054D00082E19DE00E94C43F8091830B9091840BF8
:1054E0008330910529F1009731F1049739F580E077
:1054F00098EF20917D02222339F02091D80A2D7F48
:10550000243011F480E098EF7C0110E000E021E00D
:1055100042E050E062E171E082E19DE00E940E3ADB
:105520008091DA0A8111E8CEECE06E2E712CEBCE80
:105530008FE190E0DECF8FEE9BE7DBCF80EE97E050
:10554000D8CF6EEC77E082E19DE00E94CF3F06CF9E
:105550001EE8A12E1BE0B12ED12CC12C0EE1802E15
:105560008BE4982E8091A2018C151D04C1F1BCF131
:105570004AE062E17DE0D50158968D919C910E94B0
:10558000D63F82E19DE00E941B10C601959587954C
:1055900095958795889EA001899E500D11244E57A0
:1055A0005F4FC60183709927989EB001999E700D38
:1055B0001124645F7F4FF12CE12C0FEF1FEF21E0EE
:1055C00082E19DE00E940E3ABFEFCB1ADB0AE2E0D7
:1055D000AE0EB11CF8E0CF16D10421F6EFCE6EEC82
:1055E00077E082E19DE00E94CF3FCFCFE091C80AF3
:1055F000F091C90AEE0FFF1FE15EF44F6181611166
:105600007EC065EA75E082E19DE00E94CF3FF12C0B
:10561000E12C0FEF1FEF21E045EA50E060E670E07B
:1056200082E19DE00E940E3AE091C80AF091C90A19
:10563000EE0FFF1FE15EF44F6081611167C065EA04
:1056400075E082E19DE00E94CF3FF12CE12C0FEF4D
:105650001FEF21E045EA50E066EF70E082E19DE057
:105660000E940E3A4CE0842E5EE1952E6BE4A62E4D
:105670008091C80A9091C90A889EF001899EF00D18
:105680001124EE0DFF1DEE0FFF1FE257F44F808136
:10569000918100E01CEFC816D90614F010E000E07C
:1056A000C7019595879595958795989EB001999E88
:1056B000700D1124970123703327A29EC001A39E71
:1056C000900D11249B01275A3F4FAC01485B5F4F5F
:1056D000685A7F4F0C960E949D388FEFE81AF80A9F
:1056E0009CE0E916F10421F66B2D8FE591E00E9414
:1056F00085286B2D84E591E00E94852861CE685253
:10570000770B82E19DE00E946F1081CF6852770B8A
:1057100082E19DE00E946F1098CFEF92FF920F936D
:105720001F93CF93C0910401CC2361F11092040127
:10573000F12CE12C0AE812E52FEE30E0A70170E031
:1057400060E0C7010E949D3882E0E80EF11C80E411
:10575000E81681E0F80671F728EE30E048E151E004
:1057600064E170E088E290E00E949D3810E000E083
:1057700026EE30E046E151E066E170E08AE290E03A
:105780000E949D388091830B9091840B892B21F08E
:105790008091DA0A882341F1489B02C0659924C0B0
:1057A0008FE190E090939D0180939C016C2F86E99E
:1057B00091E00E9485286C2F8BE891E00E9485285B
:1057C0006C2F80E891E00E9485286C2F85E791E09E
:1057D0000E9485286C2F8AE691E0CF911F910F914E
:1057E000FF90EF900C9485288AE892E5DBCFCF926A
:1057F000DF92EF92FF920F931F93CF93DF93CDB77A
:10580000DEB76C970FB6F894DEBF0FBECDBFD09059
:105810000401DD2009F461C0109204018091DA0ACC
:10582000882309F4E6C086E897E00E9485198091F4
:10583000DA0A882321F080910601882369F0F12C8F
:10584000E12C0FEF1FEF22E04EE150E068E070E046
:105850008CE997E00E940E3AF12CE12C0FEF1FEF3C
:1058600022E04AE550E068E070E08CE997E00E94B1
:105870000E3A22E046E950E068E070E08CE997E0FB
:105880000E940E3A8091DA0A882321F08091060165
:10589000882369F0F12CE12C0FEF1FEF22E04EE19D
:1058A00050E060E271E08EE997E00E940E3AF12C40
:1058B000E12C0FEF1FEF22E04AE550E060E271E0DB
:1058C0008EE997E00E940E3A22E046E950E060E25D
:1058D00071E08EE997E00E940E3A6D2D87E091E02D
:1058E0000E9485288091CC0AF12CE12C00EE17E073
:1058F00021E048E250E060EA70E0823009F07CC0CC
:1059000080EA97E00E94703A0FE110E021E04AE55A
:1059100050E060EA70E082EB97E00E94703A21E08C
:1059200046E950E060EA70E08DEB97E00E94703A43
:105930004AE0BE016F5F7F4F8091C80A9091C90A0B
:105940000E94D63F69EC77E082E19DE00E94CF3F64
:10595000BE016F5F7F4F82E19DE00E94C43F69EC12
:1059600077E082E19DE00E94C43F0FEF1FEF21E04E
:105970004EE650E060EA70E082E19DE00E94703AFD
:10598000E091C80AF091C90AEF55FE4F80814AE0C4
:10599000BE016F5F7F4F90E00E94D63F69EC77E0D9
:1059A00082E19DE00E94CF3FBE016F5F7F4F82E1A9
:1059B0009DE00E94C43F69EC77E082E19DE00E9497
:1059C000C43F21E04AEA50E060EA70E082E19DE0F5
:1059D0000E94703A6C960FB6F894DEBF0FBECDBF32
:1059E000DF91CF911F910F91FF90EF90DF90CF90BB
:1059F000089580E997E019CF813009F088C084EDDF
:105A000097E00E94703A0FE110E021E04AE550E093
:105A100060EA70E087EE97E00E94703A21E046E984
:105A200050E060EA70E082EF97E00E94703AE09107
:105A3000C60AF091C70AEE0FFF1FED56FD4F0FEF9C
:105A40001FEF21E04EE650E060EA70E08081918136
:105A50000E94703A2091C60A3091C70AF901ED5CA4
:105A6000F24F4081842F90E0B90162507109623099
:105A7000710518F02930310521F45AE0459FC00125
:105A800011242730310581F4880F991FFC01E55757
:105A9000FD4F6081718182E19DE00E94CF3FF12C3A
:105AA000E12C0FEF1FEF8DCF25503109223031054A
:105AB00030F4880F991FFC01ED57FD4FEACF4AE003
:105AC000BE016F5F7F4F0E94D63F6DEC77E082E1B1
:105AD0009DE00E94CF3FBE016F5F7F4F82E19DE05E
